{
  "contractName": "EthSwap",
  "abi": [
    {
      "inputs": [
        {
          "internalType": "contract Token",
          "name": "_token",
          "type": "address"
        }
      ],
      "payable": false,
      "stateMutability": "nonpayable",
      "type": "constructor"
    },
    {
      "anonymous": false,
      "inputs": [
        {
          "indexed": false,
          "internalType": "address",
          "name": "account",
          "type": "address"
        },
        {
          "indexed": false,
          "internalType": "address",
          "name": "token",
          "type": "address"
        },
        {
          "indexed": false,
          "internalType": "uint256",
          "name": "amount",
          "type": "uint256"
        },
        {
          "indexed": false,
          "internalType": "uint256",
          "name": "rate",
          "type": "uint256"
        }
      ],
      "name": "TokensPurchased",
      "type": "event"
    },
    {
      "anonymous": false,
      "inputs": [
        {
          "indexed": false,
          "internalType": "address",
          "name": "account",
          "type": "address"
        },
        {
          "indexed": false,
          "internalType": "address",
          "name": "token",
          "type": "address"
        },
        {
          "indexed": false,
          "internalType": "uint256",
          "name": "amount",
          "type": "uint256"
        },
        {
          "indexed": false,
          "internalType": "uint256",
          "name": "rate",
          "type": "uint256"
        }
      ],
      "name": "TokensSold",
      "type": "event"
    },
    {
      "constant": true,
      "inputs": [],
      "name": "rate",
      "outputs": [
        {
          "internalType": "uint256",
          "name": "",
          "type": "uint256"
        }
      ],
      "payable": false,
      "stateMutability": "view",
      "type": "function"
    },
    {
      "constant": true,
      "inputs": [],
      "name": "token",
      "outputs": [
        {
          "internalType": "contract Token",
          "name": "",
          "type": "address"
        }
      ],
      "payable": false,
      "stateMutability": "view",
      "type": "function"
    },
    {
      "constant": false,
      "inputs": [],
      "name": "buyTokens",
      "outputs": [],
      "payable": true,
      "stateMutability": "payable",
      "type": "function"
    },
    {
      "constant": false,
      "inputs": [
        {
          "internalType": "uint256",
          "name": "_amount",
          "type": "uint256"
        }
      ],
      "name": "sellTokens",
      "outputs": [],
      "payable": false,
      "stateMutability": "nonpayable",
      "type": "function"
    }
  ],
  "bytecode": "0x6080604052606460015534801561001557600080fd5b506040516107bf3803806107bf8339818101604052602081101561003857600080fd5b8101908080519060200190929190505050806000806101000a81548173ffffffffffffffffffffffffffffffffffffffff021916908373ffffffffffffffffffffffffffffffffffffffff16021790555050610726806100996000396000f3fe60806040526004361061003f5760003560e01c80632c4e722e146100445780636c11bcd31461006f578063d0febe4c146100aa578063fc0c546a146100b4575b600080fd5b34801561005057600080fd5b5061005961010b565b6040518082815260200191505060405180910390f35b34801561007b57600080fd5b506100a86004803603602081101561009257600080fd5b8101908080359060200190929190505050610111565b005b6100b26103c4565b005b3480156100c057600080fd5b506100c96106cc565b604051808273ffffffffffffffffffffffffffffffffffffffff1673ffffffffffffffffffffffffffffffffffffffff16815260200191505060405180910390f35b60015481565b6000600154828161011e57fe5b04905080471015610197576040517f08c379a00000000000000000000000000000000000000000000000000000000081526004018080602001828103825260178152602001807f4e6f2068617920737566696369656e746573204554482e00000000000000000081525060200191505060405180910390fd5b6000809054906101000a900473ffffffffffffffffffffffffffffffffffffffff1673ffffffffffffffffffffffffffffffffffffffff166323b872dd3330856040518463ffffffff1660e01b8152600401808473ffffffffffffffffffffffffffffffffffffffff1673ffffffffffffffffffffffffffffffffffffffff1681526020018373ffffffffffffffffffffffffffffffffffffffff1673ffffffffffffffffffffffffffffffffffffffff1681526020018281526020019350505050602060405180830381600087803b15801561027357600080fd5b505af1158015610287573d6000803e3d6000fd5b505050506040513d602081101561029d57600080fd5b8101908080519060200190929190505050503373ffffffffffffffffffffffffffffffffffffffff166108fc829081150290604051600060405180830381858888f193505050501580156102f5573d6000803e3d6000fd5b507f697c42d55a5e1fed3f464ec6f38b32546a0bd368dc8068b065c67566d73f3290336000809054906101000a900473ffffffffffffffffffffffffffffffffffffffff1684600154604051808573ffffffffffffffffffffffffffffffffffffffff1673ffffffffffffffffffffffffffffffffffffffff1681526020018473ffffffffffffffffffffffffffffffffffffffff1673ffffffffffffffffffffffffffffffffffffffff16815260200183815260200182815260200194505050505060405180910390a15050565b600060015434029050806000809054906101000a900473ffffffffffffffffffffffffffffffffffffffff1673ffffffffffffffffffffffffffffffffffffffff166370a08231306040518263ffffffff1660e01b8152600401808273ffffffffffffffffffffffffffffffffffffffff1673ffffffffffffffffffffffffffffffffffffffff16815260200191505060206040518083038186803b15801561046c57600080fd5b505afa158015610480573d6000803e3d6000fd5b505050506040513d602081101561049657600080fd5b8101908080519060200190929190505050101561051b576040517f08c379a000000000000000000000000000000000000000000000000000000000815260040180806020018281038252601b8152602001807f4e6f2068617920737566696369656e7465206c6971756964657a2e000000000081525060200191505060405180910390fd5b6000809054906101000a900473ffffffffffffffffffffffffffffffffffffffff1673ffffffffffffffffffffffffffffffffffffffff1663a9059cbb33836040518363ffffffff1660e01b8152600401808373ffffffffffffffffffffffffffffffffffffffff1673ffffffffffffffffffffffffffffffffffffffff16815260200182815260200192505050602060405180830381600087803b1580156105c357600080fd5b505af11580156105d7573d6000803e3d6000fd5b505050506040513d60208110156105ed57600080fd5b8101908080519060200190929190505050507f6faf93231a456e552dbc9961f58d9713ee4f2e69d15f1975b050ef0911053a7b336000809054906101000a900473ffffffffffffffffffffffffffffffffffffffff1683600154604051808573ffffffffffffffffffffffffffffffffffffffff1673ffffffffffffffffffffffffffffffffffffffff1681526020018473ffffffffffffffffffffffffffffffffffffffff1673ffffffffffffffffffffffffffffffffffffffff16815260200183815260200182815260200194505050505060405180910390a150565b6000809054906101000a900473ffffffffffffffffffffffffffffffffffffffff168156fea265627a7a7231582010739226cd94ef3b603aa7f45d3bd3ed424c78eaf9e8cece325983268e0af85a64736f6c63430005100032",
  "source": "pragma solidity ^0.5.0;\r\n\r\n// Imports\r\nimport \"./Token.sol\";\r\n\r\ncontract EthSwap {\r\n    // Variables\r\n    Token public token;\r\n    uint public rate = 100;\r\n\r\n    // Eventos\r\n    event TokensPurchased(address account, address token, uint amount, uint rate);\r\n    event TokensSold(address account, address token, uint amount, uint rate);\r\n\r\n    // Constructor\r\n    constructor(Token _token) public {\r\n        token = _token;\r\n    }\r\n\r\n    // Funciones\r\n    /**\r\n     * @notice Función que permite comprar tokens.\r\n     */\r\n    function buyTokens() public payable {\r\n        uint _tokenAmount = msg.value * rate; // Calcula la cantidad de tokens que se van a comprar. \r\n        require(token.balanceOf(address(this)) >= _tokenAmount, 'No hay suficiente liquidez.');\r\n\r\n        token.transfer(msg.sender, _tokenAmount);\r\n\r\n        emit TokensPurchased(msg.sender, address(token), _tokenAmount, rate);    \r\n    }\r\n\r\n    /**\r\n     * @notice Función que nos permite vender tokens.\r\n     */\r\n    function sellTokens(uint _amount) public {\r\n        uint _etherAmount = _amount / rate; // Calcula la cantidad de tokens que se van a vender.\r\n        require(address(this).balance >= _etherAmount, 'No hay suficientes ETH.');\r\n\r\n        token.transferFrom(msg.sender, address(this), _amount);\r\n        msg.sender.transfer(_etherAmount);\r\n\r\n        emit TokensSold(msg.sender, address(token), _amount, rate);\r\n    }\r\n}",
  "sourcePath": "C:\\Users\\Blanko\\Documents\\Santi\\Programming\\Blockchain\\Formación\\ETH-Swap\\src\\contracts\\EthSwap.sol",
  "compiler": {
    "name": "solc",
    "version": "0.5.16+commit.9c3226ce.Emscripten.clang"
  },
  "schemaVersion": "3.4.2",
  "updatedAt": "2021-09-08T18:18:01.780Z",
  "networkType": "ethereum",
  "devdoc": {
    "methods": {}
  },
  "userdoc": {
    "methods": {
      "buyTokens()": {
        "notice": "Función que permite comprar tokens."
      },
      "sellTokens(uint256)": {
        "notice": "Función que nos permite vender tokens."
      }
    }
  }
}